{
  "_format": "hh-sol-artifact-1",
  "contractName": "Calculator",
  "sourceName": "contracts/Calculator.sol",
  "abi": [
    {
      "inputs": [
        {
          "internalType": "uint256",
          "name": "a",
          "type": "uint256"
        },
        {
          "internalType": "uint256",
          "name": "b",
          "type": "uint256"
        }
      ],
      "name": "addition",
      "outputs": [
        {
          "internalType": "uint256",
          "name": "",
          "type": "uint256"
        }
      ],
      "stateMutability": "pure",
      "type": "function"
    },
    {
      "inputs": [
        {
          "internalType": "uint256",
          "name": "a",
          "type": "uint256"
        },
        {
          "internalType": "uint256",
          "name": "b",
          "type": "uint256"
        }
      ],
      "name": "divide",
      "outputs": [
        {
          "internalType": "uint256",
          "name": "",
          "type": "uint256"
        }
      ],
      "stateMutability": "pure",
      "type": "function"
    },
    {
      "inputs": [
        {
          "internalType": "uint256",
          "name": "a",
          "type": "uint256"
        },
        {
          "internalType": "uint256",
          "name": "b",
          "type": "uint256"
        }
      ],
      "name": "multiply",
      "outputs": [
        {
          "internalType": "uint256",
          "name": "",
          "type": "uint256"
        }
      ],
      "stateMutability": "pure",
      "type": "function"
    },
    {
      "inputs": [
        {
          "internalType": "uint256",
          "name": "a",
          "type": "uint256"
        },
        {
          "internalType": "uint256",
          "name": "b",
          "type": "uint256"
        }
      ],
      "name": "subtract",
      "outputs": [
        {
          "internalType": "uint256",
          "name": "",
          "type": "uint256"
        }
      ],
      "stateMutability": "pure",
      "type": "function"
    }
  ],
  "bytecode": "0x608060405234801561001057600080fd5b5061042b806100206000396000f3fe608060405234801561001057600080fd5b506004361061004c5760003560e01c8063165c4a16146100515780633ef5e4451461008157806354f363a3146100b1578063f88e9fbf146100e1575b600080fd5b61006b60048036038101906100669190610218565b610111565b6040516100789190610267565b60405180910390f35b61009b60048036038101906100969190610218565b61012e565b6040516100a89190610267565b60405180910390f35b6100cb60048036038101906100c69190610218565b61014b565b6040516100d89190610267565b60405180910390f35b6100fb60048036038101906100f69190610218565b610168565b6040516101089190610267565b60405180910390f35b6000610126828461018590919063ffffffff16565b905092915050565b6000610143828461019b90919063ffffffff16565b905092915050565b600061016082846101b190919063ffffffff16565b905092915050565b600061017d82846101c790919063ffffffff16565b905092915050565b6000818361019391906102b1565b905092915050565b600081836101a9919061030b565b905092915050565b600081836101bf919061033f565b905092915050565b600081836101d591906103c4565b905092915050565b600080fd5b6000819050919050565b6101f5816101e2565b811461020057600080fd5b50565b600081359050610212816101ec565b92915050565b6000806040838503121561022f5761022e6101dd565b5b600061023d85828601610203565b925050602061024e85828601610203565b9150509250929050565b610261816101e2565b82525050565b600060208201905061027c6000830184610258565b92915050565b7f4e487b7100000000000000000000000000000000000000000000000000000000600052601160045260246000fd5b60006102bc826101e2565b91506102c7836101e2565b9250817fffffffffffffffffffffffffffffffffffffffffffffffffffffffffffffffff0483118215151615610300576102ff610282565b5b828202905092915050565b6000610316826101e2565b9150610321836101e2565b92508282101561033457610333610282565b5b828203905092915050565b600061034a826101e2565b9150610355836101e2565b9250827fffffffffffffffffffffffffffffffffffffffffffffffffffffffffffffffff0382111561038a57610389610282565b5b828201905092915050565b7f4e487b7100000000000000000000000000000000000000000000000000000000600052601260045260246000fd5b60006103cf826101e2565b91506103da836101e2565b9250826103ea576103e9610395565b5b82820490509291505056fea2646970667358221220a7e70f50858fa216d538647e0d0809aaf84517b3fabb4457bf07d99374e355da64736f6c63430008090033",
  "linkReferences": {},
  "deployedLinkReferences": {}
}